:100000000C9434000C9446000C9446000C9446006A
:100010000C9446000C9446000C9446000C94460048
:100020000C9446000C9446000C9446000C94460038
:100030000C9446000C9446000C9446000C94460028
:100040000C9446000C9446000C9446000C94460018
:100050000C9446000C9446000C9446000C94460008
:100060000C9446000C94460011241FBECFEFD8E03C
:10007000DEBFCDBF21E0A0E0B1E001C01D92A631FE
:10008000B207E1F70E949B000C9459010C94000008
:100090008AB180668AB98AB18C698AB983EA84BDDB
:1000A00083E085BD0E94210141E050E060E070E006
:1000B00083E090E00E94D7007894089518161906FE
:1000C0003CF42BB124602BB92BB1277F2BB909C08D
:1000D0002BB12B7F2BB92BB128602BB99195819532
:1000E0009109161617063CF42BB120612BB92BB1E0
:1000F0002F772BB909C02BB12F7E2BB92BB12068DC
:100100002BB97195619571098F3F910509F02CF418
:10011000992324F480E090E001C08FEF87BD6F3F0A
:10012000710509F02CF4772324F460E070E001C03D
:100130006FEF68BD08950E9448000E943E01FC01D7
:10014000808191819C01220F331F820F931F628156
:100150007381719561957109660F771F681B790B23
:1001600084819581681B790B86819781860F971F03
:10017000628573859B01220F331F620F731F2085D9
:100180003185220F331F620F731F680F791F80E0C4
:1001900090E00E94E400BC0168537F4F28EC30E0FF
:1001A000A901481B590BCA010E945E00C6CF90935B
:1001B0000901809308017093070160930601509331
:1001C0000501409304010895861B970B20910001BF
:1001D00030910101280F391F309301012093000154
:1001E0004091020150910301BC01641B750B909377
:1001F000030180930201E0910801F09109018E9FB3
:10020000A0018F9F500D9E9F500D1124E09106017B
:10021000F09107012E9FC0012F9F900D3E9F900DE2
:100220001124840F951F4091040150910501649F92
:100230009001659F300D749F300D1124820F931F24
:10024000089580E480937C0084E880937A00089588
:10025000ECE7F0E09081907F8F70892B8083EAE754
:10026000F0E0808180648083089580917A0086FD2B
:10027000FCCF809178009091790008951F93CF93DF
:10028000DF9310E00EC0812F0E942801C12FD0E023
:100290000E943501CC0FDD1FC65FDE4F9983888336
:1002A0001F5F163080F38AE091E0DF91CF911F91BC
:0602B0000895F894FFCF51
:00000001FF
